:100000000C9463110C949E110C949E110C949E11EF
:100010000C949E110C949E110C949E110C949E11A4
:100020000C949E110C949E110C949E110C949E1194
:100030000C949E110C94B83A0C949E110C949E1141
:100040000C949E110C949E110C949E110C949E1174
:100050000C949E110C949E110C949E110C949E1164
:100060000C949E110C9424DE0C949E110C9450DE82
:100070000C949E110C94C29D0C949E110C949E1194
:100080000C948E3A0C949E110C949E110C949E111B
:100090000C9484DE0C949E110C94B0DE0C949E1192
:1000A0000C949E110C949E110C949E110C949E1114
:1000B0000C949E110C949E110C949E110C94E03A99
:1000C0000C949E110C949E110C949E110C949E11F4
:1000D0000C949E110C949E110C949E110C949E11E4
:1000E0000C949E113C3479347B346134883424354B
:1000F00024356134B1342435BF34CA34DE34E334BA
:100100002435243590346134AC3424354A348C346D
:10011000E834F9340035243524350435D681A181FD
:10012000AC819E819B81AE81CB81B181DACCF7CC51
:1001300004CD2DCD4CCD5FCD6DCDA2CD0C947DB534
:100140000C944FA50C94DE340C94E1B70C946DAC78
:100150000C945FB20C9426CB0C9487AD0C94903425
:100160000C9404CD0C9431AC0C94C06F0C947CAC0A
:100170000C944CCD0C942FB80C9418AC0C94E87FD4
:100180000C943E9E0C9485B40C9456C40C948BAD88
:100190000C9401820C946DCD0C9458AD0C9423AF4B
:1001A0000C9400970C94CFC80C946FDA0C94C9D6B9
:1001B0000C948DD30C94ABBD0C94ACC20C94EFC1D9
:1001C0000C9411DC0C943DDA0C9495AD0C9404ACB9
:1001D0000C949DBE0C94B2B90C9472AC0C94E3B523
:1001E0000C941C7E0C9438D50C9440AC0C940BC32E
:1001F0000C9478E40C9462B50C94DAD50C94B13478
:100200000C94579B0C946DAD0C94AC810C945FCD09
:100210000C9465B30C94B3B40C94CFBC0C9409AC9F
:100220000C949C2E0C9464AE0C943DB70C9438AE98
:100230000C940EAC0C9461340C941DB90C94DFCE6C
:100240000C949CB30C9471B20C94AC340C9496AD99
:100250000C94BB9C0C9437820C94F7CC0C9476AD28
:100260000C9497A50C94CA340C94E3340C94FFB905
:100270000C9496C30C94FA810C943CDB0C9431D30F
:100280000C945EAC0C9475AE0C9481AC0C9418B5C7
:100290000C94CAB30C9427AC0C9475BF0C9451B356
:1002A0000C94F3B60C9427370C94C9A00C94CB8112
:1002B0000C9409DC0C945EDC0C940CBF0C94A2CD65
:1002C0000C941A820C9452C00C9495C10C94C22ABE
:1002D0000C949DA80C9453B20C9480D00C94AFB5A0
:1002E0000C94A5820C94D4440C9423DD0C94FDB1A1
:1002F0000C94E4720C9457960C941DA10C94A1815B
:100300000C9484D20C94275D0C9445AC0C949BB156
:100310000C9477AC0C9443980C945AB20C94A7D0DC
:100320000C9422AC0C94E8340C94BF340C94A8D1F7
:100330000C943BAC0C94B9C00C9493BB0C94043556
:100340000C945CC30C9487DC0C9468AC0C9442ADA8
:100350000C94EAD40C9438D30C9463AC0C94A3C5DD
:100360000C9479B60C9426370C94FFCB0C945BBCA0
:100370000C947B340C9429820C944C9D0C94F9348D
:100380000C9416B10C9465AD0C94E3B00C94F1DEB2
:100390000C944FAC0C94A3BF0C949CC40C942DCD26
:1003A0000C94A2B30C9498D60C94E4DE0C94539D58
:1003B0000C9496DD0C9459B00C9488340C9424352C
:1003C0000C94B3B30C94DACC0C9460AD0C943BD287
:1003D0000C945A480C9491BD0C94F9490C942582C4
:1003E0000C9459B40C9450B10C946EC20C942FAD73
:1003F0000C948CB10C946BD40C948C340C94CE3E35
:100400000C9433BA0C9440820C94F6AB0C944EAE20
:100410000C9407870C94AE810C940BAE0C9454ACE6
:100420000C948CC00C9488B20C9447360C94D97EF2
:100430000C9490AD0C94DA3C0C9413AC0C9445AD38
:100440000C944A340C94CEC30C94ABB80C941DACF1
:100450000C9400350C948FAE0C9436AC0C94A8D24E
:100460000C949E810C94C99A0C9429A80C94D68162
:100470000C94FDAB0C9462BA0C941BBB0C9479BD2C
:100480000C941BC70C9469AD0C9452410C942CAC89
:100490000C94B1810C94A2B20C94F9BE0C941BDAAA
:1004A0000C9459AC0C9448DA0C9499B10C949B813F
:1004B0000C944FC90C9479340C9404870C943C34FC
:1004C0000C9488D30C94A8C30C940EA00C94A7CFC2
:1004D0000C944AAC0C94AAAD5265706C696361745B
:1004E00030722031001704C8000000DC00270564CA
:1004F00000000078007505C8000000DC00200664DC
:100500000000007800E006C8000000DC002006C8FB
:10051000000000DC002006C8000000DC002D08C838
:100520000000000000C00DC80000001400C00DC88D
:1005300000000014005A10C80000001400C00D9004
:10054000010000000070039001000014005504C871
:1005500000000014002705C800000014007003907C
:100560000100000000C805C80000001400C805C84C
:100570000000001400C805C80000001400DD04B02D
:1005800004000014007505C800000014007505C8BB
:1005900000000014007505C800000014009704B0A6
:1005A0000400000000C00DC80000001400C00DC809
:1005B0000000001400910E9001000014005A1090E9
:1005C0000100001400C00D2003000000007003BCF7
:1005D000000000BC00E006BC000000BC00B807BC86
:1005E000000000BC002D08BC00A908BC000000BC35
:1005F00000C00D4D0100000000C00D20010000BC36
:10060000005311BC000000BC005B12B101000000EF
:10061000009302690000006900EE016900000069B2
:10062000002601B8010000000024F4D43050C38E2D
:1006300020C2A24017828B7011127A910D816CD961
:100640000AA861E108C7586607615143061E4B5D61
:1006500005C145A7041A411104093D9803713931B8
:10066000034036DB0265339102D4305402802E1DE4
:1006700002632CEE01752AC501B028A00110278164
:10068000018F2564012B244B01E0223401AC211F92
:10069000018D200D01801FFC00841EED00971DDFE1
:1006A00000B81CD200E61BC600201BBC00641AB2B6
:1006B00000B219A8000A19A0006A189900D1179170
:1006C0000040178B00B516840031167E00B31579F3
:1006D000003A157300C7146F0058146A00EE1366D1
:1006E000008813630025135E00C7125B006C12576D
:1006F0000015125400C111510070114F0021114B0F
:1007000000D61049008D10470046104400021042E8
:1007100000C00F4000800F3E00420F3C00060F3B20
:1007200000CB0E3800930E37005C0E3500270E34D8
:1007300000F30D3200C10D3100900D3000600D2E20
:1007400000320D2D00050D2C00D90C2B00AE0C290C
:1007500000850C29005C0C2700350C27000E0C26A8
:1007600000E80B2400C40B2400A00B23007D0B2306
:10077000005A0B2100390B2100180B2000F80A1F2A
:1007800000D90A1E00BB0A1E009D0A1D00800A1D1A
:1007900000630A1C00470A1B002C0A1B00110A1ADE
:1007A00000F7091A00DD091900C4091900AB09197D
:1007B00000920917007B091800630917004C0916FD
:1007C0000036091600200916000A091500F508155B
:1007D00000E0081400CC081400B8081400A40814A1
:1007E00000900813007D0812006B081300580812CF
:1007F00000460812003408110023081100120811E5
:100800000001081100F0071000E0071000D00710E9
:1008100000C0071000B0070F00A107100091070EDD
:100820000083070F0074070F0065070E0057070EBF
:100830000049070E003B070D002E070E0020070D94
:100840000013070D0006070D00F9060C00ED060D5C
:1008500000E0060C00D4060C00C8060C00BC060C18
:1008600000B0060C00A4060B0099060C008D060BC8
:100870000082060B0077060B006C060B0061060A6F
:100880000057060B004C060A0042060A0038060A0A
:10089000002E060A0024060A001A060A001006099D
:1008A0000007060A00FD050900F4050900EB05092B
:1008B00000E2050900D9050900D0050900C70509AE
:1008C00000BE050900B5050800AD050800A505092D
:1008D000009C050800940508008C050800840508A4
:1008E000007C050800740508006C05070065050814
:1008F000005D050700560508004E0507004705077F
:10090000004005080038050700310507002A0507E3
:1009100000230507001C050600160507000F050744
:10092000000805060002050700FB040600F50407A1
:1009300000EE040600E8040600E2040700DB0406FB
:1009400000D5040600CF040600C9040600C304064F
:1009500000BD040600B7040600B1040500AC04069F
:1009600000A6040600A00405009B040600950405EB
:1009700000900406008A0405008504050080040632
:10098000007A04050075040500700405006B040579
:100990000066040500610405005C040500570405B9
:1009A00000520405004D04050048040500430405F9
:1009B000003E0404003A0405003504050030040438
:1009C000002C04050027040400230405001E040471
:1009D000001A04040016040500110404000D0404A8
:1009E00000090405000404040000040400FC0304DE
:1009F00000F8030400F4030400F0030400EC030413
:100A000000E8030400E4030400E0030400DC030442
:100A100000D8030400D4030400D0030400CC030472
:100A200000C8030300C503030024F404D9201BC439
:100A30000C5C0E9804C4095F0265077101F405F9A6
:100A400000FB04B30048048700C103690058035544
:100A50000003034500BE023A008402310053022A1B
:100A6000002902250004022000E4011C00C801192D
:100A700000AF0117009801140084011300710110E8
:100A8000006101100051010E0043010D0036010B01
:100A9000002B010B0020010B00150109000C0109BE
:100AA0000003010800FB000800F3000800EB00074A
:100AB00000E4000600DE000600D8000600D20006B2
:100AC00000CC000500C7000500C2000500BD000401
:100AD00000B9000400B5000400B1000400AD00043A
:100AE00000A9000400A5000300A20003009F000469
:100AF000009B000300980003009500020093000390
:100B000000900003008D0002008B000300880002AB
:100B1000008600020084000300810002007F0002C2
:100B2000007D0002007B00020079000200770001D6
:100B300000760002007400020072000100710002E1
:100B4000006F0002006D0001006C0002006A0001ED
:100B500000690002006700010066000100650001F5
:100B600000640002006200010061000100600001F9
:100B7000005F0002005D0001005C0001005B0001FD
:100B8000005A0001005900010058000100570001FF
:100B90000056000100550001005400010053000000
:100BA00000530001005200010051000100500001FB
:100BB000004F0001004E0000004E0001004D0001FA
:100BC000004C0001004B0000004B0001004A0001F6
:100BD00000490001004800000048000100470001F2
:100BE00000460000004600010045000000450001ED
:100BF00000440001004300000043000100420000E7
:100C000000420001004100000041000100400001DD
:100C1000003F0000003F0001003E0000003E0001D8
:100C2000003D0000003D0001003C0000003C0000D1
:100C3000003C0001003B0000003B0001003A0000C6
:100C4000003A0001003900000039000100380000BE
:100C500000380000003800010037000000370001B4
:100C600000360000003600000036000100350000AC
:100C700000350000003500010034000000340000A1
:100C80000034000100330000003300000033000195
:100C9000003200000032000000320001003100008C
:100CA0000031000000310001003000000030000081
:100CB00000300001002F0000002F0000002F000076
:100CC000002F0001002E0000002E0000002E000169
:100CD000002D0000002D0000002D0000002D00015F
:100CE000002C0000002C0000002C0000002C000153
:100CF000002B0000002B0000002B0000002B000147
:100D0000002A0000002A0000002A0000002A00013A
:100D1000002900000029000000290000002900002F
:100D20000029000100280000002800000028000021
:100D30000028000000280001002700000027000014
:100D40000027000000270000002700010026000007
:100D500000260000002600000026000000260001FA
:100D600000250000002500000025000000250000EF
:100D700000250000002500010024000000240000E0
:100D800000240000002400000024000100230000D3
:100D900000230000002300000023000000230000C7
:100DA00000230000002300010022000000220000B8
:100DB00000220000002200000022000000220001AA
:100DC000002100000021000000210000002100009F
:100DD000002100000021000000210001002000008F
:100DE0000020000000200000002000000020000083
:100DF000002000000020000000200001001F000073
:100E0000001F0000001F0000001F0000001F000066
:100E1000001F0000001F0001001E0000001E000057
:100E2000001E0000001E000000890899000000005C
:100E300052657047204275696C64009600FF840318
:100E400069010000140083048800000014008C0075
:100E50000000000000000030F8FFFF00000000006C
:100E60000000009B000000000000000000000000E7
:100E70000000000000000000A51C0000180000A0F9
:100E80004095048304DC0500001400901F8B0000D3
:100E9000000000000000A00F0000000000000000A3
:100EA0000000800000009B0000000000000000A483
:100EB0000F00000000000000000000A51C0000184A
:100EC0000AD7233C95049B000000000000000000AE
:100ED0000000000000000000000000A00F0000184B
:100EE000F62820418002891B9500000000427920ED
:100EF00068616E64206D6F76652074686520657822
:100F00002D00950100000074727564657220746F85
:100F100020646966666572656E7420009501000044
:100F200000706F736974696F6E73206F76657220DD
:100F300074686520200095070000006275696C6484
:100F400020706C6174666F726D2E2E2E2E009500CF
:100F500000000041646A75737420746865207370C2
:100F60006163696E6720200095010000006265746E
:100F70007765656E20746865206578747275646540
:100F8000720095010000006E6F7A7A6C6520616EC8
:100F90006420706C6174666F726D200095070000AC
:100FA000007769746820746865206B6E6F62732EB9
:100FB0002E2E009500000000756E64657220746826
:100FC0006520706C6174666F726D20200095010061
:100FD0000000616E642061207368656574206F662F
:100FE000207061706572009501000000706C616393
:100FF0006564206265747765656E2074686520207D
:10100000009507000000706C6174666F726D20615E
:101010006E64207468652E2E2E0095000000006E10
:101020006F7A7A6C652E205768656E20796F75200F
:10103000617265009501000000646F6E652C207080
:101040007265737320746865202020202000950746
:1010500000000063656E74657220627574746F6E53
:101060002E00891F62003B02000000002110422078
:1010700063308440A550C660E770088129914AA179
:101080006BB18CC1ADD1CEE1EFF1311210027332F0
:101090005222B5529442F772D662399318837BB3C9
:1010A0005AA3BDD39CC3FFF3DEE362244334200480
:1010B0000114E664C774A44485546AA54BB5288519
:1010C0000995EEE5CFF5ACC58DD5533672261116D0
:1010D0003006D776F6669556B4465BB77AA7199769
:1010E0003887DFF7FEE79DD7BCC7C448E558866858
:1010F000A7784008611802282338CCC9EDD98EE9B9
:10110000AFF9488969990AA92BB9F55AD44AB77A2F
:10111000966A711A500A333A122AFDDBDCCBBFFB08
:101120009EEB799B588B3BBB1AABA66C877CE44C3F
:10113000C55C222C033C600C411CAEED8FFDECCD58
:10114000CDDD2AAD0BBD688D499D977EB66ED55E0F
:10115000F44E133E322E511E700E9FFFBEEFDDDFA8
:10116000FCCF1BBF3AAF599F788F8891A981CAB134
:10117000EBA10CD12DC14EF16FE18010A100C23066
:10118000E3200450254046706760B9839893FBA321
:10119000DAB33DC31CD37FE35EF3B1029012F322B6
:1011A000D2323542145277625672EAB5CBA5A89571
:1011B00089856EF54FE52CD50DC5E234C324A01406
:1011C00081046674476424540544DBA7FAB7998701
:1011D000B8975FE77EF71DC73CD7D326F236910656
:1011E000B01657667676154634564CD96DC90EF949
:1011F0002FE9C899E9898AB9ABA9445865480678A6
:101200002768C018E1088238A3287DCB5CDB3FEB60
:101210001EFBF98BD89BBBAB9ABB754A545A376AF5
:10122000167AF10AD01AB32A923A2EFD0FED6CDD30
:101230004DCDAABD8BADE89DC98D267C076C645C45
:10124000454CA23C832CE01CC10C1FEF3EFF5DCF40
:101250007CDF9BAFBABFD98FF89F176E367E554E95
:10126000745E932EB23ED10EF01E78206D6F7265C3
:1012700021002A20507265737320004572617369E2
:101280006E672E2E2E00656570726F6D5F64756DD2
:10129000702E62696E2066696C656E6F7420666F71
:1012A000756E640052656164206661696C65643BBB
:1012B00020454550524F4D206D6179206265206375
:1012C0006F727275707400526573746F72696E67B5
:1012D0002E2E2E00656570726F6D5F64756D702EB9
:1012E00062696E2066696C65616C72656164792003
:1012F0006578697374730053442063617264207766
:1013000072697465206661696C6564005361766911
:101310006E672E2E2E005072657373205550207408
:101320006F2070726F636565642E00796F7572202F
:10133000626F7420696E6F70657261626C652E00F9
:1013400054686973206D656E752063616E206D61F0
:101350006B65005361696C666973682076372E3857
:10136000207230346665660041546D6567612032D5
:101370003536302032302F31302F3236002D2D20AF
:10138000486561746572205370656369616C202DD6
:101390002D005361696C666973682046462043726C
:1013A0006561746F725800202020202020202020AA
:1013B000202020202020202020202000202020204D
:1013C0000020004320202020002F20202043000167
:1013D0000049033600FF006B00D100A000B800D523
:1013E00000A6000A0199003F018E0074018400A943
:1013F000017C00DE01740013026C00480265007D70
:10140000025D00B2025600E7024E001C0346005186
:10141000033D0086033200BB032200F0030300FFFC
:10142000030000436F6F6C696E672046616E205049
:101430006F77657200456C61707365643A20202097
:1014400020203030306830306D00207365637300C9
:1014500054696D65204C6566743A20202030303028
:101460006830306D00557365203020666F722075CE
:101470006E6C696D69746564004D6178205A205006
:10148000726F62652048697473005072696E7420CF
:101490006F62737472756374696F6E202020646567
:1014A0007465637465642E2020436865636B2074E3
:1014B00068657072696E7420616E642065787472FC
:1014C000756465722E205072657373204C454654C6
:1014D00020666F72206D656E752E004175746F2DDC
:1014E0006C6576656C206661696C65640A546F6F23
:1014F00020666172206F7574206F66206C6576655A
:101500006C0050726573732043454E5445522062FF
:101510007574746F6E20746F20636F6E74696E756E
:10152000652E00546865206275696C6420706C617A
:10153000746520697320206E6F74206C6576656C0D
:1015400065642100546865206275696C6420706C64
:1015500061746520697320206C6576656C65642113
:10156000004175746F2D6C6576656C2020302E30CF
:101570003030206D6D004175746F2D6C6576656C33
:1015800020696E61637469766520004175746F2D02
:101590006C6576656C206661696C65640A496E638A
:1015A0006F6D706C6574652070726F62696E670034
:1015B0004175746F2D6C6576656C206661696C652C
:1015C000640A4261642070726F62696E6720706F96
:1015D000696E7473006265747765656E2070726FF2
:1015E0006265207074732E004D61782068656967AC
:1015F00068742076617269616E6365004175746F0D
:101600002D6C6576656C2056617269616E6365004C
:10161000204465666C656374696F6E004175746F14
:101620002D6C6576656C2041646A005541525431D9
:101630000020205553420053657269616C20492F88
:101640004F00457261736520456570726F6D005380
:1016500044202D3E20456570726F6D0045657072A7
:101660006F6D202D3E20534400456570726F6D00F4
:101670005072696E742054696D653A20202068208C
:1016800030306D004C617374205072696E743A2072
:10169000202020682030306D004C69666574696DCB
:1016A000653A202020202020682030306D005265CF
:1016B00073756D696E6720706F736974696F6E2ED4
:1016C0002E2E00436C656172696E67206275696CCD
:1016D000642E2E2E20202000447261696E696E6790
:1016E00020706970656C696E652E2E2E004C6561E8
:1016F00076696E672070617573652E2E2E2020200E
:10170000200043616E63656C6C696E67207072695E
:101710006E742E2E2E2000456E746572696E6720E1
:1017200070617573652E2E2E202020005061757318
:1017300065206174205A506F733A2000506C6174B8
:10174000666F726D2054656D703A202020004C65E4
:1017500066742054656D703A200052696768742081
:1017600054656D703A2000546F6F6C686561642039
:101770004F6666736574730020546F6F6C686561A3
:1017800064204F66667365743A00204F6666736521
:10179000743A0055702F446E2F4C6566742F4D209F
:1017A000746F207365740055702F446E2F522F4C48
:1017B0002F4D20746F207365740050726F66696CD2
:1017C00065204E616D653A005361766520546F2047
:1017D00050726F66696C65004368616E6765204E84
:1017E000616D6500446973706C617920436F6E664A
:1017F000696700526573746F726500526573657432
:101800003A2070726573732043454E54455200462A
:10181000696C2E20547269703A0046696C616D657E
:101820006E743A00547269703A004C6966653A0009
:1018300046696C616D656E74204F646F6D6574658B
:10184000720048656174657273204F66660043617B
:101850006E63656C205072696E74005072696E74AC
:101860002053746174697374696373004261636BBC
:1018700020746F204D6F6E69746F72006D006D6D16
:1018800000486F6D65204F66667365747300507213
:101890006F66696C65730046696C616D656E743A5C
:1018A000202020202020302E306D6D0046696C6194
:1018B0006D656E743A005A506F736974696F6E3A51
:1018C000202020005072696E742054696D653A20A2
:1018D000202020206820206D0054656D70657261A5
:1018E000747572652072656164732020206F757451
:1018F000206F662072616E67652E202020202020D8
:1019000020436865636B20776972696E672E0054A7
:10191000656D70657261747572652072656164735E
:10192000202020617265206661696C696E672E20D7
:1019300020202020202020436865636B2077697277
:10194000696E672E0054656D70657261747572659D
:101950002064726F7070696E67436865636B20778F
:101960006972696E672E004E6F74206865617469D4
:101970006E672070726F7065726C79436865636B17
:1019800020776972696E672E0054656D70206C69EE
:101990006D697420726561636865642E2053687593
:1019A00074646F776E206F722072657374617274E5
:1019B0002E00506C6174666F726D204661696C75A3
:1019C00072652120202000546F6F6C203120466109
:1019D000696C75726521202020202000546F6F6C87
:1019E0002030204661696C757265212020202020FE
:1019F000004578747275646572204661696C757211
:101A00006521202020004865617465727320736829
:101A10007574646F776E20647565746F20696E618C
:101A2000637469766974790046696C616D656E747A
:101A3000206C6F61642F756E6C6F616463616E639F
:101A4000656C65642064756520746F20746865201A
:101A50007072696F72206865617465722065727258
:101A60006F72004D792074656D7065726174757266
:101A7000652077617320206368616E676564206507
:101A8000787465726E616C6C792E20526573656C2A
:101A90006563742066696C616D656E742020206DCD
:101AA000656E7520746F2074727920616761696E4C
:101AB0002E0077616974696E67200020204E4120F6
:101AC000202020006572726F7221004F4646202050
:101AD0002000435553544F4D00574849544520006A
:101AE000505552504C4500424C554520200047521D
:101AF00045454E200050494E4B2020004F52414E4C
:101B0000474500524544202020004C454420436F67
:101B10006C6F757200536574204C6967687473202C
:101B20004F4E2000536574204C6967687473204FD2
:101B30004646002843616E6E6F74205072696E7461
:101B400020436F707929005072696E7420416E6F66
:101B50007468657220436F7079004D61696E204D25
:101B6000656E750053657420436F6F6C696E6720F6
:101B700046616E204F46460053657420436F6F6C7C
:101B8000696E672046616E204F4E20004368616E8B
:101B90006765204842502054656D70004368616E4F
:101BA00067652054656D7065726174757265004378
:101BB00068616E6765205370656564005061757378
:101BC00065206174205A506F7300446974746F20EB
:101BD0005072696E74696E67004E2F4100502D532C
:101BE000746F702074726967676572656400502D48
:101BF00053746F7020496E76657274656400502D61
:101C000053746F7020436F6E74726F6C004368651D
:101C1000636B20534420526561647300457874728D
:101C20007564657220486F6C64005061757365203F
:101C3000776974682048656174004F7665727269CF
:101C4000646520476354656D700048425020696E9A
:101C50007374616C6C656400416363656C6572618B
:101C600074696F6E0045786974204D656E75005318
:101C70006F756E6400457874727564657220436F89
:101C8000756E7400426F7420537461746973746963
:101C900063730043616C696272617465204E6F7A90
:101CA0007A6C657300526573746F72652053657446
:101CB00074696E67730047656E6572616C20536569
:101CC0007474696E6773005072656865617420533F
:101CD000657474696E6773004C6576656C20427537
:101CE000696C6420506C61746500456E61626C655E
:101CF00020537465707065727320200044697361AD
:101D0000626C6520537465707065727300566572FD
:101D100073696F6E20496E666F726D6174696F6E64
:101D20000046696C616D656E74204C6F6164696E0C
:101D30006700486F6D652041786573004A6F6720C2
:101D40004D6F6465004D6F6E69746F72204D6F64E6
:101D500065005574696C69746965730050726568D3
:101D6000656174005072696E742066726F6D2053E5
:101D70004400492074696D6564206F75742077682C
:101D8000696C65202020617474656D7074696E677C
:101D900020746F206865617420206D7920706C61FB
:101DA00074666F726D2E00492074696D6564206FD2
:101DB0007574207768696C65202020617474656D86
:101DC0007074696E6720746F206865617420206D7F
:101DD000792065787472756465722E00556E616243
:101DE0006C6520746F20726561642053442020204C
:101DF0006361726420706172746974696F6E7320BC
:101E00006F76657232474220696E2073697A652E5B
:101E10002020466F726D61746173204641542D31EC
:101E200036206F72202D33322E00556E61626C6544
:101E300020746F2072656164207468697320534454
:101E4000206361726420666F726D61742E202020A1
:101E50002020466F726D6174206173204641542DBD
:101E60003136206F72204641542D33322E005344B8
:101E700020636172642072656164206572726F72A2
:101E80002E20546F6F206D616E7920435243206580
:101E900072726F72732E4261642063617264206398
:101EA0006F6E7461637473206F72656C65637472B6
:101EB0006963616C206E6F6973652E005344206303
:101EC0006172642072656164206572726F72005382
:101ED000442063617264206E6F7420707265736554
:101EE0006E74005344206361726420697320656DD1
:101EF0007074790043616E6E6F74206F70656E2030
:101F00007468652066696C6500534420636172647F
:101F1000207265616473206172652020206E6F7489
:101F200020676F696E672077656C6C2E2020547275
:101F3000796120646966666572656E74206361729A
:101F4000640049276D20616C726561647920627557
:101F5000696C64696E6700436F6C642050617573CF
:101F60006500556E7061757365005061757365200D
:101F7000200043616E63656C206C6F61642F756E29
:101F80006C6F61643F0043616E63656C20746869C7
:101F900073207072696E743F0073657474696E6744
:101FA000733F00526573746F726520666163746F6E
:101FB000727900506C6174666F726D202020202051
:101FC000202020202020004C656674204578747203
:101FD0007564657220202020202000526967687493
:101FE0002045787472756465722020202020004599
:101FF00078747275646572202020202020202020B3
:102000002020005072657373206C65667420746FB5
:102010002063616E63656C004578747275646572E7
:102020003A2020202D2D2D2F2D2D2D4300506C6179
:1020300074666F726D3A2020202D2D2D2F2D2D2DA1
:1020400043004C2045787472756465723A202D2DDA
:102050002D2F2D2D2D430052204578747275646507
:10206000723A202D2D2D2F2D2D2D4300202D2D2585
:102070000048656174696E673A2020202020202086
:1020800020202020200048656174696E673A002096
:102090003C2D592020284D656E75292020202020B8
:1020A00020202000203C2D582020284D656E7529C9
:1020B00020205A2D3E2020200020202020202020DB
:1020C00020582D20202020202020202020002020EB
:1020D00020202020284D656E75292020592D3E2076
:1020E0002020002020202020202020582B202020CD
:1020F000202020202020200020202020204A6F6740
:10210000206D6F64652020202020202000556E6CFB
:102110006F6164206C65667400556E6C6F6164203D
:10212000726967687400556E6C6F6164004C6F6112
:1021300064004C6F6164206C656674004C6F616470
:102140002072696768740035206D696E757465204A
:1021500074696D656F757420686173656C61707307
:1021600065642E2020507265737320746865206347
:10217000656E74657220627574746F6E20746F2062
:1021800020202066696E6973682E00426567696E5B
:10219000206C6F6164696E67206F7220202020754B
:1021A0006E6C6F6164696E672E2050726573732068
:1021B00074686563656E74657220627574746F6EA1
:1021C000207768656E202066696E69736865642E85
:1021D0000045787472756465727320617265206E53
:1021E0006F7420202068656174696E672E2020431B
:1021F0006865636B2074686520776972696E672E05
:1022000000592041786973204C696E65005820415F
:10221000786973204C696E6500594553004E4F2014
:1022200000446F6E650053656C656374206265736E
:1022300074206C696E65733A0045787472756465D4
:102240007200506C6174666F726D005475726E200E
:1022500048656174657273204F464600537461721D
:10226000742050726568656174696E6700467265B6
:1022700065205352414D20004F4646004F4E2000EE
:10228000C22A9C2E47362737CE3E5241D4445A4864
:10229000F949275DC06FE4721C7ED97EE87FFA8120
:1022A000A582579600974C9D539D3E9E0EA01DA162
:1022B0004FA597A529A8F6ABFDABC9D63CDB23DD1E
:1022C00096DDE4DEF1DEECEDFBE185EC91E201C0B0
:1022D0008193EF3FF907E0F3D9F311241FBECFEF4D
:1022E000D1E2DEBFCDBF00E00CBF16E0A0E0B2E05F
:1022F000EEEBFCEC01E00BBF02C007900D92A8369C
:10230000B107D9F72BE1A8E6B6E001C01D92AC3DBC
:10231000B207E1F711E1C3E6D1E100E006C0219781
:102320000109802FFE010E94C4E3C034D10780E080
:102330000807A9F70E949D360C945DE60C940000F6
:102340006BBFFA01DC0102C007900D9221503040B2
:10235000D8F708958091F40881110CC08091F3089A
:102360008F5F8093F308853028F081E08093F40834
:1023700010928306089581E00E94E63C80E00C9470
:102380006E3C0E94BB1160E08FEF0E94377AE9EE4D
:10239000F6E01382128215821482108611860C9444
:1023A0000833F894E9EEF6E022813381808191814F
:1023B000821B930B78940895EF92FF920F931F93D3
:1023C000CF937C018B01C42F85E999E00E9416CA46
:1023D000B70185E999E00E94EEC9B80185E999E065
:1023E0000E94EEC9E091270AEE0FFF0BE75EF54F62
:1023F000808191818559994039F065E979E08DE0D6
:102400009AE00E94EBA504C085E999E00E9455CAB4
:10241000C093F409CF911F910F91FF90EF90089511
:102420001092F409E091270AEE0FFF0BE75EF54FDB
:10243000808191818559994021F48DE09AE00E9434
:1024400093A6E091270AEE0FFF0BE75EF54F808120
:102450009181DC01ED91FC910480F581E02D1994CE
:10246000809102020895CF92DF92EF92FF920F9334
:102470001F93CF93DF93CDB7DEB7A0970FB6F89435
:10248000DEBF0FBECDBF20918406222309F47FC09A
:102490008C01CE0101960E947C7460E070E0C8015E
:1024A0000E94A941FC01C080D180E280F38060E0FD
:1024B00070E0CE0101960E94A941FC0180819181CA
:1024C000A281B381C81AD90AEA0AFB0ACD8ADE8A38
:1024D000EF8AF88E61E070E0C8010E94A941FC011A
:1024E000C080D180E280F38061E070E0CE0101968F
:1024F0000E94A941FC0180819181A281B381C81A07
:10250000D90AEA0AFB0AC98EDA8EEB8EFC8E62E0EB
:1025100070E0C8010E94A941FC01C080D180E28026
:10252000F38062E070E0CE0101960E94A941FC01B7
:1025300080819181A281B381A7019601281B390B6B
:102540004A0B5B0BDA01C9012D8F3E8F4F8F58A3C9
:102550004D895E896F89788D452B462B472B61F419
:10256000498D5A8D6B8D7C8D452B462B472B21F445
:10257000892B8A2B8B2B59F08091840683FF05C011
:10258000CE0145960E94644502C010928406A09632
:102590000FB6F894DEBF0FBECDBFDF91CF911F9174
:1025A0000F91FF90EF90DF90CF9008951092A106C9
:1025B0000895882311F080E401C080E88093E70645
:1025C0006093E4061092F6081092F508089581E0F1
:1025D0008093E30608958091E706181634F48091FD
:1025E000E406811104C081E0089580E0089582E04E
:1025F00008958091E706089581E09091E706923072
:1026000008F480E00895CF93DF93CDB7DEB76497E9
:102610000FB6F894DEBF0FBECDBF6093CB067093AC
:10262000CC068093CD069093CE06CE0101960E94F3
:102630007C7462E070E0CE0101960E94A241FC0130
:1026400040815181628173818091CB069091CC064B
:10265000A091CD06B091CE06481759076A077B07AF
:102660001CF01092CA0603C081E08093CA066496EB
:102670000FB6F894DEBF0FBECDBFDF91CF910895A6
:102680006091CB067091CC068091CD069091CE06DC
:1026900008952091EB063091EC0681E0232B09F0A0
:1026A00080E00895CF9360E070E0CB010E940313B7
:1026B0001092CA06109290061092910610929206FD
:1026C0001092930610929406C1E0C09301021092FA
:1026D000F7081092E7061092E6061092E5061092AF
:1026E000E4061092BA061092BB061092BC06109235
:1026F000BD061092BE061092BF061092C006109240
:10270000C1061092AA061092AB061092AC06109267
:10271000AD061092AE061092AF061092B00610925F
:10272000B1061092A2061092A3061092A40610926F
:10273000A5061092C2061092C3061092C40610920B
:10274000C5061092C6061092C7061092C8061092CF
:10275000C9061092B2061092B3061092B4061092F7
:10276000B5061092B6061092B7061092B8061092EF
:10277000B9061092A6061092A7061092A80610920B
:10278000A90661E082E490E00E94D89E823009F0C0
:1027900042C060E08FEF9FE00E94D89E8823D9F16D
:1027A000C093850610928B0610928C0610928D06AF
:1027B00010928E0610928A06109286061092870654
:1027C00010928806109289061092F6081092F3086B
:1027D0001092F408109283061092F5081092A00649
:1027E00010929F0610929C0610929B0610929E06D5
:1027F00010929D0610929A061092990610929606D3
:1028000010929506109298061092970610928406E0
:10281000CF910C94074610928506C4CF0E945213A4
:1028200085E680930202E9EEF6E0138212821582B9
:1028300014821086118610928206089581E090918C
:102840008206963009F080E008958091840683FF27
:1028500016C090910002992391F0809182068330F6
:1028600071F08091F408882351F0809183068F5F86
:1028700080938306981718F481E08093F5080895F3
:102880008F929F92AF92BF92CF92DF92EF92FF9280
:102890000F931F93CF93DF93CDB7DEB7AA970FB6F1
:1028A000F894DEBF0FBECDBF882321F091E0909356
:1028B000A10605C09091A106992309F4ECC0F82E59
:1028C000CE0145960E947C7481E089A78AA76E019B
:1028D00089E2C80ED11C03E010E08EE89AE0FC010A
:1028E000E759FF4F2081FC01222319F026A137A1CF
:1028F00004C0EC5AFF4F20813181232B91F148967F
:102900000E942FA3882369F1F6018081F81224C068
:10291000812C912C54018394402F60E070E080E082
:1029200090E40E948D72A50194010E943FE34B0147
:102930005C01B801CE0145960E94A941FC0140818D
:10294000518162817381840E951EA61EB71E8082FE
:102950009182A282B38205C088248A94982C540163
:10296000DBCF0430110509F08EC060ED77E08CEE0E
:1029700091E00E94E19EBC0180E090E00E947DE138
:102980002091B0153091B1154091B2155091B31509
:102990000E9485E29B01AC0160E074E284E799E467
:1029A0000E9499E00E9447E14B015C0180918506FD
:1029B000882329F18091E80681110AC064E070E063
:1029C000CE0145960E94A9418C0163E070E009C0E8
:1029D00063E070E0CE0145960E94A9418C0164E05D
:1029E00070E0CE0145960E94A941FC018081918151
:1029F000A281B381F80180839183A283B383E12C08
:102A000000E010E09801B501A401CE0145960E94B6
:102A1000D375F11040C0CE0101960E947C7463E032
:102A200070E0CE0101960E94A9418C0163E070E044
:102A30008FEC96E00E94A941FC0180819181A281E6
:102A4000B381F80180839183A283B38364E070E053
:102A5000CE0101960E94A9418C0164E070E08FECE8
:102A600096E00E94A941FC0180819181A281B381FD
:102A7000F80180839183A283B38360E0CE01019645
:102A80000E94F37308C0FFEFCF1ADF0A8DE09BE0CE
:102A900004E010E024CFAA960FB6F894DEBF0FBE74
:102AA000CDBFDF91CF911F910F91FF90EF90DF90FD
:102AB000CF90BF90AF909F908F9008952F923F92AC
:102AC0004F925F926F927F928F929F92AF92BF923E
:102AD000CF92DF92EF92FF920F931F93CF93DF93EA
:102AE000CDB7DEB7C856D1090FB6F894DEBF0FBE1A
:102AF000CDBF182FCE01CD960E946D41CE01899693
:102B00000E946D41112309F433C1E7E2F5E18EEA39
:102B100095E12385222309F4B2C22285222309F4F8
:102B2000AEC2BD968E179F07A1F784E1EFECF6E0E9
:102B3000DE01559601900D928A95E1F7CE0101963E
:102B40000E947C7460E070E0CE0145960E94A9412D
:102B50008C0140913715509138156091391570915D
:102B60003A158EE090E00E94F09E6B017C0180E0BF
:102B70000E946F7220E030E040EA50E40E9485E25B
:102B80000E9447E1C61AD70AE80AF90AF801C0828A
:102B9000D182E282F38261E070E0CE0145960E942C
:102BA000A9418C014091641550916515609166159D
:102BB0007091671582E190E00E94F09E6B017C01AC
:102BC00081E00E946F7220E030E040EA50E40E9411
:102BD00085E20E9447E1C61AD70AE80AF90AF80115
:102BE000C082D182E282F38262E070E0CE0145963B
:102BF0000E94A9418C0162E070E0CE0101960E9422
:102C0000A941FC01C080D180E280F38082E00E9473
:102C10006F7220E030E040EA50E40E9485E20E94BA
:102C200047E1C60ED71EE81EF91EF801C082D18208
:102C3000E282F38262E070E0CE0145960E94A941F3
:102C4000FC01408151816281738180919115909145
:102C50009215A0919315B091941584179507A60726
:102C6000B7079CF462E070E0CE0145960E94A9414E
:102C70004091911550919215609193157091941512
:102C8000FC01408351836283738362E070E0CE0174
:102C900001960E94A941FC01C080D180E280F380AE
:102CA00062E070E0CE0145960E94A941FC0180815E
:102CB0009181A281B3818C159D05AE05BF05BCF441
:102CC00062E070E0CE0145960E94A9418C0162E06D
:102CD00070E0CE0101960E94A941FC0180819181A2
:102CE000A281B381F80180839183A283B38363E0DF
:102CF00070E0CE0145960E94A9418C0163E070E02E
:102D0000CE0101960E94A941FC0180819181A2819E
:102D1000B381F80180839183A283B38364E070E080
:102D2000CE0145960E94A9418C0164E070E0CE017D
:102D300001960E94A941FC0180819181A281B38109
:102D4000F80180839183A283B383BE016B5E7F4FC2
:102D5000CE018F5A9F4F0E94B67384E1FE01EF5A55
:102D6000FF4FDE01999601900D928A95E1F757C0C9
:102D700084E1EFECF6E0DE01999601900D928A95E0
:102D8000E1F7CE0145960E947C7464E070E0CE01CC
:102D900089960E94A941FC01108101813280238023
:102DA00063E070E0CE0189960E94A941FC01808019
:102DB0009180A280B38062E070E0CE0145960E94CF
:102DC000A941FC01C080D180E280F38061E070E025
:102DD000CE0145960E94A941FC014080518062804D
:102DE000738060E070E0CE0145960E94A941FC012D
:102DF00040815181628173812F923F920F931F9383
:102E000093018201CE0101960E946E4160E0CE01E5
:102E100001960E94F3730F900F900F900F906091A6
:102E20008715709188158091891590918A150E9457
:102E30007FE120E030E040E857E30E9485E2209106
:102E400083153091841540918515509186150E9407
:102E500085E20E9447E1A9966CAF7DAF8EAF9FAF30
:102E6000A997CE018F5A9F4F0E947C7484E1FE0186
:102E7000EF5AFF4FDE01DD9601900D928A95E1F742
:102E800060E070E0CE01CD960E94A941FC01C080B7
:102E9000D180E280F38060E070E0CE0189960E94EC
:102EA000A941FC0180819181A281B381A701960192
:102EB000281B390B4A0B5B0BCA01B9010E947FE149
:102EC0002091291530912A1540912B1550912C15E0
:102ED0000E9499E02B013C0161E070E0CE01CD96AB
:102EE0000E94A941FC01C080D180E280F38061E0B2
:102EF00070E0CE0189960E94A941FC0180819181F8
:102F0000A281B381A7019601281B390B4A0B5B0BE9
:102F1000CA01B9010E947FE12091561530915715E1
:102F200040915815509159150E9499E04B015C0150
:102F300062E070E0CE01CD960E94A941FC01C08004
:102F4000D180E280F38062E070E0CE0189960E9439
:102F5000A941FC0180819181A281B381A7019601E1
:102F6000281B390B4A0B5B0BCA01B9010E947FE198
:102F700020918315309184154091851550918615C7
:102F80000E9499E06B017C01A3019201C301B2018F
:102F90000E9485E22B013C01A5019401C501B40109
:102FA0000E9485E29B01AC01C301B2010E9411E0C5
:102FB0004B015C01A7019601C701B6010E9485E2A1
:102FC0009B01AC01C501B4010E9411E00E94F8E22E
:102FD0002B013C0180918506882329F18091E80628
:102FE00081110AC064E070E0CE0189960E94A94177
:102FF0008C0163E070E009C063E070E0CE01899667
:103000000E94A9418C0164E070E0CE0189960E9483
:10301000A941FC0180819181A281B381F801808363
:103020009183A283B383B09053161092531660918C
:103030008715709188158091891590918A150E9445
:103040007FE120E030E040E857E30E9485E220E0A5
:1030500030E040E852E40E9485E20E9447E16B01C3
:103060008301720120E0A9964CAD5DAD6EAD7FADE0
:10307000A997CE0189960E944D77B0925316C859F0
:10308000DF4F0FB6F894DEBF0FBECDBFDF91CF91FB
:103090001F910F91FF90EF90DF90CF90BF90AF9076
:1030A0009F908F907F906F905F904F903F902F9068
:1030B0000895EF92FF920F931F93CF93DF9328E031
:1030C000829FC0011124FC01E654F94FF080018178
:1030D0001281D381C481B581E680E7812F2D302F05
:1030E000412F5D2F6C2F7B2F8E2D9E2FA0E00E94F5
:1030F0009FE554F40E94FAE4F22E032F142FD52FEB
:10310000C62FB72FE82EE92F2F2D302F412F5D2FFF
:103110006C2F7B2F8E2D9E2FDF91CF911F910F91C2
:10312000FF90EF9008952F923F924F925F926F928F
:103130007F928F929F92AF92BF92CF92DF92EF9247
:10314000FF920F931F93CF93DF93C82F0E945918BC
:1031500079011A012B013C01A0E00E949FE509F0D2
:103160000CF453C088E0C89FE00111244E0188E4AC
:10317000881A8EEF980A00E010E020E030E040E08E
:1031800050E060E070E0C4010E94969F59016A011E
:10319000F62FE72F8C019701A101B201C301EF2E99
:1031A000FE2E0E9478E589019A01AB01BC01C401A1
:1031B0000E94E89FDE01A655B94FFE01E654F94F83
:1031C00080818C93818111968C93119782811296C4
:1031D0008C931297838113968C9313978481149602
:1031E0008C931497858115968C93159786811696E6
:1031F0008C931697878117968C9310821182128276
:1032000013821482158216821782DF91CF911F914B
:103210000F91FF90EF90DF90CF90BF90AF909F9075
:103220008F907F906F905F904F903F902F90089578
:1032300080E00E94931881E00C949318EF92FF9223
:103240000F931F93CF93DF9328E0829FC001112437
:10325000FC01E655F94FF08001811281D381C481D0
:10326000B581E680E7812F2D302F412F5D2F6C2F08
:103270007B2F8E2D9E2FA0E00E949FE554F40E948C
:10328000FAE4F22E032F142FD52FC62FB72FE82ED6
:10329000E92F2F2D302F412F5D2F6C2F7B2F8E2D5F
:1032A0009E2FDF91CF911F910F91FF90EF90089586
:1032B000CF92DF92EF92FF9280E00E941E19E42FDE
:1032C00043E0B9018E2F952F0E947B726B017C0128
:1032D00081E00E941E19E42F44E0B9018E2F952F42
:1032E0000E947B729B01AC01C701B6010E9411E0F4
:1032F0006B017C0180E00E945918E42F43E0B90182
:103300008E2F952F0E947B729B01AC01C701B601E5
:103310000E9411E06B017C0181E00E945918E42FAA
:1033200044E0B9018E2F952F0E947B729B01AC0166
:10333000C701B6010E9411E0FF90EF90DF90CF909F
:1033400008950F931F93CF93DF93D82F00E916E0D2
:10335000C0E0F801808181110FC08C2F0E946C7A2F
:10336000F8018083DD2321F08C2F0E94727A04C043
:1033700064E18C2F0E94677ACF5F0F5F1F4FC530CB
:1033800041F7DF91CF911F910F9108950F931F93F4
:10339000CF9300E916E0C0E0F80160818C2F0E9415
:1033A000677AF80111928F01CF5FC530A9F7CF91ED
:1033B0001F910F9108950F931F93CF93DF93CDB774
:1033C000DEB769970FB6F894DEBF0FBECDBF809110
:1033D000E706853409F40CC190F5813409F456C030
:1033E000B8F4803209F4D3C1803409F43FC082308C
:1033F00009F002C20E9410126091E5067091E60683
:1034000021E040E089E699E00E947D3A81E051C0E8
:10341000833409F445C008F04FC0CE0106960E94DF
:103420007C7484E1FE013696AFECB6E001900D921B
:103430008A95E1F781E00E94401483E43AC0843821
:1034400009F46CC150F4813809F44AC1833809F495
:1034500056C1803809F0D0C1F6C0863809F477C16A
:1034600008F46BC1873809F477C1C6C10E941631D0
:10347000853029F00E941631843009F09FC181E423
:103480008093E70681E00E94A119B6C18091B70C34
:103490009091B60C891B8F7009F0AEC182E409C00F
:1034A0008091B70C9091B60C891B8F7009F0A4C164
:1034B00084E48093E706A0C181E00E945E1585E464
:1034C0008093E7060E941631853039F00E9416314C
:1034D00011E0843019F010E001C011E08091A40BDC
:1034E000882319F08091A60B10C045E06EE074E0CF
:1034F000CE0101960E94C0D9CE0101960E940EDA3B
:10350000811102C084E601C080E080938F0680E0D4
:103510000E946E3C8091F70A882329F08091B40ABA
:103520009091B50A04C08091E20A9091E30A9093C9
:103530009606809395068091760B882329F08091DA
:10354000330B9091340B04C08091610B9091620B0E
:10355000909398068093970680918A0A882329F091
:103560008091470A9091480A04C08091750A909111
:10357000760A90939A06809399068091E4068111C9
:1035800025C160E08EEF9FE00E94D89E882309F459
:103590001DC18091E406882351F021E040E060E005
:1035A00080E00E94A68060E088EF0E94377A6091F8
:1035B000E5067091E6066115710569F08091F708DE
:1035C000811105C0111103C087E197E102C082E0BB
:1035D00097E141E00AC0111103C087E197E102C001
:1035E00082E097E141E063EC76E10E94DC1104C1E6
:1035F0008091B70C9091B60C891B8F7009F0FCC0BC
:103600000E94C6198091F708882311F080E209C052
:103610008091E5069091E606892B11F481E001C0C6
:1036200082E08093E7060E9410120E9416318530D6
:1036300009F4E2C00E941631843009F4DDC087E04D
:103640000E94F940D9C080E00E94A11900919F0614
:103650001091A0060115110521F400919906109111
:103660009A061016110654F460E089E39AE00E946D
:1036700092A3B80189E39AE00E9460A200919B06A0
:1036800010919C060115110521F4009195061091E9
:1036900096061016110654F460E086EA9AE00E943D
:1036A00092A3B80186EA9AE00E9460A200919D066A
:1036B00010919E060115110521F4009197061091B5
:1036C00098061016110654F460E085E29BE00E9413
:1036D00092A3B80185E29BE00E9460A281E8E9CE56
:1036E0008091990690919A06181619060CF071C0EF
:1036F00089E39AE00E942FA381116BC07DC0809165
:10370000950690919606181619060CF064C086EA84
:103710009AE00E942FA381115EC06EC081E00E94DA
:10372000A11980E00E945E1585E88093E70641E0DC
:103730006EEA76E18DEE96E158CF8091B70C9091CC
:10374000B60C891B8F7009F057C086E8B2CE80E0B6
:103750000E94401487E8ADCE8091B70C9091B60CD2
:10376000891B8F7009F048C080918F060E946E3CC3
:103770000E94C6190E9410121092E7061092E606E7
:103780001092E5061092F6081092F50835C00E94D6
:1037900010126091E5067091E60621E040E089E6AE
:1037A00099E00E947D3A0E94F2421092E606109241
:1037B000E5061092F7081092E7061EC041E068ED9A
:1037C00076E187E197E10E94DC1159CE0E94BB119E
:1037D000E0CE83E86ECE80919706909198061816F9
:1037E000190634F485E29BE00E942FA3882321F080
:1037F0000E94C61984E85DCE69960FB6F894DEBFC4
:103800000FBECDBFDF91CF911F910F9108958F9281
:103810009F92AF92BF92CF92DF92EF92FF92CF939F
:10382000C0910202C53609F453C0CC2309F450C03C
:10383000F0908A06CF1509F44BC0FF2009F448C068
:10384000609186067091870680918806909189061E
:103850006115710581059105D9F10E947DE14B014A
:103860005C016C2F70E06F197109072E000C880B3A
:10387000990B0E947FE19B01AC01C501B4010E943C
:1038800099E06B017C016C2F70E080E090E00E9479
:103890007DE19B01AC0160E070E088EC92E40E9465
:1038A00010E09B01AC01C701B6010E9485E26B01EB
:1038B0007C0120E030E0A9010E9494E087FF03C072
:1038C000C12CD12C7601C701B6010E9447E103C08B
:1038D00060E070E0CB01CF91FF90EF90DF90CF9050
:1038E000BF90AF909F908F900895FC018481958147
:1038F000860F971F608171810E945BE3268137816B
:10390000820F931F08951F93CF93DF93EC012A81B9
:103910003B81888199812817390770F4162F6A81B5
:103920007B81CE010E94751CFC0110838A819B81E2
:1039300001969B838A8302C081E08887DF91CF91C3
:103940001F910895682F89EE96E00C94831CCF9305
:10395000DF93EC018A819B81892B21F481E08987A7
:1039600080E015C060E070E0CE010E94751CFC0193
:103970008C819D810196688179810E945BE39D83A2
:103980008C838A819B8101979B838A838081DF91CD
:10399000CF91089589EE96E00C94A71CCF9389EE01
:1039A00096E00E94A71CC82F89EE96E00E94A71CF3
:1039B000982F8C2FCF9108951F93CF93DF9389EE8B
:1039C00096E00E94A71C182F89EE96E00E94A71C83
:1039D000D82F89EE96E00E94A71CC82F89EE96E0AA
:1039E0000E94A71C982F612F7D2F8C2FDF91CF91E4
:1039F0001F910895CF92DF92EF92FF921F93CF9382
:103A0000DF93C82F61E070E089EE96E00E94751C9C
:103A1000FC011081CF3F09F01C2F62E070E089EEBD
:103A200096E00E94751CFC0180818D3009F474C001
:103A300048F48C3008F05DC0843008F0C1C0833099
:103A400071F00BC0873109F44AC020F4803108F4CA
:103A5000B7C003C08F3109F46AC010E0C5C064E08C
:103A600070E089EE96E00E94751CFC01C081D0E0F8
:103A700065E070E089EE96E00E94751CFC01808193
:103A800090E0982F8827C80FD91F209719F40E941B
:103A9000181914C0C12ED12C7601EE0CFF1CF701B1
:103AA000E556F94F80819181892B09F08BC060E048
:103AB0008DEF9FE00E94D89E811184C0113019F0D3
:103AC0008EE89AE002C08DE09BE0BE0148960E941D
:103AD00060A28091A80B8E7F8093A80B71C00E947A
:103AE000EB1291E0811190E060E0892F0E94293370
:103AF00067C064E070E089EE96E00E94751CFC01EE
:103B000060816170113019F08EE89AE002C08DE09A
:103B10009BE00E94ADA054C064E070E089EE96E0A6
:103B20000E94751CFC0180810E946E3C49C00E946D
:103B3000CC2D182F882309F443C064E070E089EE8F
:103B400096E00E94751CFC01C081EC2EF12C65E012
:103B500070E089EE96E00E94751CFC01C081D0E007
:103B6000DC2FCC27CE0DDF1D2097D1F080919F0652
:103B70009091A006892B39F460E08DEF9FE00E94C0
:103B8000D89E882369F080919F069091A0060097A7
:103B900031F464E670E08CE591E00E94E19EEC0176
:103BA000BE0189E39AE00E9460A261E089E699E0A3
:103BB0000E94693C8091A80B8E7F8093A80B14C053
:103BC00011E012C0F701E556F94F8081918100970D
:103BD00049F4C601880F991F66EE70E0885A9E4F1F
:103BE0000E94E19EEC016ACF812FDF91CF911F915E
:103BF000FF90EF90DF90CF9008952F923F924F92D9
:103C00005F926F927F928F929F92AF92BF92CF926C
:103C1000DF92EF92FF920F931F93CF93DF93CDB775
:103C2000DEB7C058D1090FB6F894DEBF0FBECDBFC6
:103C30000E9498428823B9F08091EB069091EC069F
:103C40002091E9063091EA062817390749F10E94C8
:103C5000E742882329F10E94EA42682F89EE96E024
:103C60000E94831CE9CF0E947F7E8823A1F180916E
:103C7000EB069091EC062091E9063091EA062817B0
:103C8000390709F405C20E948D7E882309F400C219
:103C90000E949B7E682F89EE96E00E94831CE7CFEE
:103CA0000E94E742811117C080910402882309F421
:103CB000E5C19091E7069111E1C191E09093F70879
:103CC000813009F0D3C18FEC9EE19093E60680939A
:103CD000E5060E94C1118091CB069091CC06A0917F
:103CE000CD06B091CE06892B8A2B8B2B19F18091B2
:103CF000CA0681111FC0CE0101960E947C7462E049
:103D000070E0CE0101960E94A241DC014D915D91CF
:103D10006D917C918091CB069091CC06A091CD06BF
:103D2000B091CE06481759076A077B071CF481E05B
:103D30008093CA068091CB069091CC06A091CD06C7
:103D4000B091CE06892B8A2B8B2B79F18091CA06F4
:103D5000882359F10E94EB12811127C0CE010196F0
:103D60000E947C7462E070E0CE0101960E94A24144
:103D7000FC0140815181628173818091CB069091D9
:103D8000CC06A091CD06B091CE06481759076A0718
:103D90007B075CF060E070E0CB010E94031360E001
:103DA00081E00E9429330C94A82A1091E706123072
:103DB00020F00E94DB190C94A82A1130F9F48091AC
:103DC000E40681110C94A82A8091E30681110C94D9
:103DD000A82A85EF99E00E945FDD882311F40C94F6
:103DE000A82A1093E4060E94BB1121E040E060E0A5
:103DF00080E00E94A68060E088EF8DC180918206FD
:103E0000833071F40E94F772882341F086E796E0D0
:103E10000E945FDD882321F00E94E47D10928206DB
:103E20008091F608811104C08091F508882329F15A
:103E30008091F408882309F1809182068330E9F0AB
:103E40008091E706811119C00E94EB12811111C007
:103E50008091F508882319F08AE894E102C08DED7D
:103E60009BE19093E6068093E50661E081E00E9485
:103E700029331092F60810928306809182068130D1
:103E800031F40E94F772811102C010928206809173
:103E90008206823039F48CE796E00E945FDD811162
:103EA0001092820680918206843009F052C080E729
:103EB00096E00E945FDD882349F020E040E067EA59
:103EC0007DE189E699E00E947D3A20C08091E80674
:103ED000813019F48DE09BE002C08EE89AE04896AC
:103EE0000E945BA3811115C080918506882371F023
:103EF0008091E806882319F08EE89AE002C08DE0F0
:103F00009BE048960E945BA3811123C01092820619
:103F100020C08091E806813019F48DE09BE002C05A
:103F20008EE89AE048960E942FA3882391F0809112
:103F30008506882359F38091E806811103C08DE03E
:103F40009BE002C08EE89AE048960E942FA3811160
:103F5000DDCF809182068530E1F480E796E00E9413
:103F60005FDD882349F020E040E062E77DE189E6FB
:103F700099E00E947D3AD3C089E39AE00E945BA356
:103F8000882309F4CCC089E39AE00E942FA3811111
:103F9000C6C080918206863091F58AE696E00E943E
:103FA0005FDD882391F08091680681FF06C060E0A4
:103FB00089E699E00E94D93E22C010928206809143
:103FC000A80B8F7E8093A80B1AC08DE09AE00E9408
:103FD0001EA88823A1F08091680682FF04C08DE0AE
:103FE0009AE00E9493A60E94BA3E8091A80B8F7E11
:103FF0008093A80B8FEF0E947E81109282068091A1
:10400000820681110C94A82A60E070E089EE96E0A7
:104010000E94751CDC011C910E94185C882359F0D9
:10402000812F8F7E8B3811F01E3811F410920C0204
:1040300081E080930B02B0E2A796BFAFA797809173
:10404000EB069091EC06892B89F18091B70C909149
:10405000B60C891B8F708E3048F5812F8F7E8B3880
:1040600009F425C51E3809F422C520C08B3019F487
:104070008EE69EE12ACE8CEB9EE127CE8091E5066E
:104080009091E606892B09F026CE0E94F24223CEBB
:104090000E948D7E81111FCE8091EB069091EC06DF
:1040A000892B09F018CE0E94D67E15CE80910C0285
:1040B000811105C00E94B96481E080930C02809157
:1040C000EB069091EC06892B11F40C94A82A89E652
:1040D00099E00E94863A1B3809F41FC11E3809F482
:1040E0001CC11B3909F419C11938E1F48091EB06A0
:1040F0009091EC06029710F40C94A82A0E94CA1C16
:104100000E94CA1C9091850691110C94382A682F40
:10411000661F6627661F0E94377A0C94A82A1092A1
:10412000820637CF163811F40C94282A1C3909F46A
:10413000F4C0812F8B7F803999F09DE7910F9230E9
:1041400078F0883849F0163909F4E7C00E94185C05
:10415000882311F40C94A82A1C3811F40C944F2ACB
:104160001538D1F48091EB069091EC06059710F488
:104170000C94A82A82E0809382060E94CA1C0E94A6
:10418000DC1C9B01AC01A8EEB3E00E94DBE3AB01B9
:10419000BC018CE796E01AC11439A1F58091EB06B9
:1041A0009091EC06059710F40C94A82A0E94CA1C62
:1041B0000E94CA1C809369060E94CE1C7C010E944A
:1041C000CA1C80936806E114F10471F0D70120E461
:1041D00032E44FE050E00E94DBE3AB01BC018AE631
:1041E00096E00E942DDD87C0CE0101960E942ADD57
:1041F00086E0FE013196AAE6B6E001900D928A951E
:10420000E1F779C0153909F088C08091EB069091EB
:10421000EC06069710F40C94A82A0E94CA1C0E946F
:10422000CA1C182F0E94CA1CD82E0E94CA1CE82E35
:104230000E94CA1CF82E10FD04C085E999E00E9476
:1042400016CAD0929809E092990969EE76E085E95C
:1042500099E00E947AC911FD02C00C94A82AE0914D
:10426000270AEE0FFF0BE75EF54F8081918185599C
:10427000994039F065E979E08DE09AE00E94EBA57C
:1042800004C085E999E00E9455CA1470FF2049F0E6
:10429000111107C06F2D85E999E00E9445CA0C9461
:1042A000A82A112311F40C94A82AFF2079F0AF2D2D
:1042B000B0E020E432E44FE050E00E94DBE3AB01E9
:1042C000BC018AE696E00E942DDD0DC0CE0101966C
:1042D0000E942ADD86E0FE013196AAE6B6E0019052
:1042E0000D928A95E1F781E08093690680916806D6
:1042F0008470809368060E94B03E609169068DE0EC
:104300009AE00E941BA88091A80B80618093A80B63
:1043100086E0809382060C94A82A8DE7810F823074
:1043200070F58091EB069091EC06089710F40C94D0
:10433000A82A0E94CA1C0E94CA1CF82E0E94DC1CDB
:104340004B015C010E94CE1C23E020938206DC011D
:1043500020E432E44FE050E00E94DBE3AB01BC011B
:1043600086E796E00E942DDD81E0143809F080E0B8
:10437000A50194016F2D0E947A790C94A82A173810
:1043800049F58091EB069091EC06069710F40C9499
:10439000A82A84E08093820681E08093F40810923A
:1043A00083060E94CA1C0E94CA1C8093E8060E94D1
:1043B000CE1C0E94CE1CDC0120E432E44FE050E031
:1043C0000E94DBE3AB01BC0180E796E00E942DDD9B
:1043D0000C94A82A1D38A9F48091EB069091EC0664
:1043E000069710F40C94A82A85E08093820681E059
:1043F0008093F408109283060E94CA1C0E94CA1C73
:10440000D6CF1F3809F09DC08091EB069091EC0645
:10441000029710F40C94A82A0E94CA1C0E94CA1C7D
:10442000182FCE0101960E947C749EE0C92ED12CDB
:10443000E12CF12CA12EB12CC5010E2C02C09595BA
:1044400087950A94E2F780FF17C0B701CE01019665
:104450000E94A941FC0180819181A281B3818AA738
:104460009BA7ACA7BDA7F89444E050E0B601CE01ED
:104470008A960E9438E67894FFEFEF1AFF0A04E06C
:10448000C00ED11C23E0E216F104B1F6112311F4A1
:104490000C94A82A812F887181130C94A82A1830B3
:1044A00021F0103121F012E003C010E001C011E052
:1044B00081E090E0012E01C0880F0A94EAF7909104
:1044C0008406892B8093840660E070E0CE0101961B
:1044D0000E94A941FC0180819181A281B3818AA7B8
:1044E0009BA7ACA7BDA761E070E0CE0101960E943A
:1044F000A941FC0180819181A281B3818EA79FA7F0
:10450000A8ABB9AB62E070E0CE0101960E94A94170
:10451000FC0180819181A281B3818AAB9BABACAB62
:10452000BDABF894FCE01F9FB00111246659704F99
:104530004CE050E0CE018A960E9438E678940C94C4
:10454000A82A103909F01FC18091EB069091EC0662
:10455000029710F40C94A82A0E94CA1C0E94CA1C3C
:10456000182FCE018A960E947C74183109F06FC012
:10457000809184068770873009F043C0F89444E046
:1045800050E066E170E0CE01CE960E9414E649E26A
:1045900050E065E67FE0CE0101960E9414E6789433
:1045A0008A819B81AC81BD81181619061A061B06EB
:1045B00044F088EC90E0A0E0B0E08A839B83AC8379
:1045C000BD8322962CAD3DAD4EAD5FAD22976A8185
:1045D0007B818C819D818E01025E1F4F6801DE010F
:1045E00052967D01085111090E942B46882339F00B
:1045F0008091840688608093840610E003C012E0F6
:1046000001C011E0F89461E0111101C060E085E69D
:104610009FE00E9442E67894112309F499C7113073
:1046200019F48BE895E10CC00E9451486D3F7F4F13
:104630008F4F9F4F19F480EB95E102C08BED94E111
:104640009093E6068093E5060E94C11181C7183059
:1046500009F03EC0F89444E050E066E170E0CE011D
:104660008C5B9F4F0E9414E649E250E065E67FE0D4
:10467000CE0101960E9414E678948CE390E0A0E0CD
:10468000B0E08A839B83AC83BD838E01025E1F4FA3
:104690009E012E5E3F4FAE014A5F5F4F6CE370E0BC
:1046A00080E090E00E94A24540E062E075E188234E
:1046B00019F084E495E102C083E295E10E94DC11E7
:1046C000CE01CE960E942ADD86E0FE01FE9605CE42
:1046D000103119F40E9407463BC78EE0A82EB12C7A
:1046E000C12CD12CE12EF12CC7010C2C02C09595C8
:1046F00087950A94E2F780FF0CC0F894B601CE01CA
:104700008A960E94A94144E050E0B5010E9414E657
:104710007894EFEFCE1ADE0AF4E0AF0EB11C03E09E
:10472000C016D10409F763E070E0CE018A960E94BA
:10473000A941FC0180819181A281B3818093A2066D
:104740009093A306A093A406B093A50664E070E03E
:10475000CE018A960E94A941FC0180819181A281AB
:10476000B3818093A6069093A706A093A806B09362
:10477000A906CE018A960E94331261E0CE018A9684
:104780000E94F373E5C6113999F48091EB0690917C
:10479000EC06039708F4DCC60E94CA1C0E94CA1CDF
:1047A000182F0E94CA1C682F812F0E94677AD0C6DA
:1047B0001239E1F48091EB069091EC06069708F42B
:1047C000C7C60E94CA1C0E94CA1C182F0E94CA1C7D
:1047D000F82E0E94CA1CE82E0E94CA1C0E94CA1C05
:1047E0004E2D6F2D812F0E94E681B2C61339B1F490
:1047F0008091EB069091EC06069708F4A9C60E94FA
:10480000CA1C0E94CE1C7C010E94CE1C6C010E941E
:10481000CA1CB601C7010E9498409AC6183809F010
:1048200062C08091EB069091EC06049708F490C664
:1048300063E070E089EE96E00E94751C2091EB0623
:104840003091EC06DC01EC90F12CB4E0EB0EF11CA5
:104850002E153F0508F47CC680918506882339F023
:1048600080910102882319F01092010203C081E0B7
:104870008093010262E070E089EE96E00E94751C70
:10488000FC018081833059F062E070E089EE96E0AF
:104890000E94751CDC018C918C3009F0D5C580918B
:1048A000010281110DC061E070E089EE96E00E9486
:1048B000751CFC0181E09081992319F080E001C012
:1048C0008FEF0E94FA1C80910102882309F440C6F0
:1048D00010E0812F90E08E159F0508F039C60E94E8
:1048E000CA1C1F5FF6CF163909F041C08091EB0654
:1048F0009091EC06039708F42BC60E94CA1C0E94F4
:10490000CA1C809302020E94CA1C80910202882362
:10491000F1F080918B0690918C06A0918D06B0915C
:104920008E06892B8A2B8B2B91F480918A0681111C
:104930000EC00E94EC3160938B0670938C068093BE
:104940008D0690938E068091020280938A06809154
:104950000202882309F4FCC50E94EC3160938606AC
:10496000709387068093880690938906F1C517395E
:10497000B9F48091EB069091EC060297B8F10E9491
:10498000CA1C0E94CA1C811102C084E006C081308A
:1049900019F40E94F9402AC082E00E94344126C0E6
:1049A000183999F48091EB069091EC06029708F47F
:1049B000CFC50E94CA1C0E94CA1C0E94C62C60E07F
:1049C00089E699E00E94D93EC3C5193991F48091D6
:1049D000EB069091EC06059708F4BAC50E94CA1C34
:1049E0000E94DC1C89EE96E00E9433311092F4089C
:1049F000AFC51A3971F48091EB069091EC060297DD
:104A000008F4A6C50E94CA1C0E94CA1C0E948232D9
:104A1000EDCF1C3999F48091EB069091EC0602974A
:104A200008F496C50E94CA1C0E94CA1C91E08130FD
:104A300009F090E0892F0E94777A8AC51D39A1F488
:104A40008091EB069091EC06459708F481C50E9491
:104A5000DC1C0E94DC1C0E94DC1C0E94DC1C0E94EE
:104A6000DC1C0E94CA1C74C51E3909F071C58091F6
:104A7000EB069091EC06059708F46AC50E94CA1CE3
:104A80000E94DC1C6B017C012FE632E143E85AE313
:104A90000E9494E087FF03C0C12CD12C760142E034
:104AA000C701B6010E948D720E94031351C5A796DB
:104AB000BFADA797B150A796BFAFA797B11105C0DB
:104AC00089E699E00E94863A43C51B3809F0BBC0CD
:104AD0008091EB069091EC06499708F48FC40E94F0
:104AE000CA1CE1E0E09382060E94DC1C2C966CAFAD
:104AF0007DAF8EAF9FAF2C970E94DC1C60966CAF91
:104B00007DAF8EAF9FAF60970E94DC1C64966CAF48
:104B10007DAF8EAF9FAF64970E94DC1C4B01382E97
:104B2000292E0E94DC1C2B013C010E94DC1C689693
:104B30006CAF7DAF8EAF9FAF68978091850688235D
:104B400059F08091E806811104C02401632C722C75
:104B500003C04201362C272C8092A2069092A30615
:104B60003092A4062092A5068091A6069091A706F1
:104B7000A091A806B091A90693018201081B190B08
:104B80002A0B3B0BD901C80168017901FF0CCC0845
:104B9000DC2C76019801AD016C2D7C2D8C2D9C2D8B
:104BA000A090C206B090C306C090C406D090C506BF
:104BB000E090C606F090C7060091C8061091C9069D
:104BC0000E9478E52093C2063093C3064093C40642
:104BD0005093C5066093C6067093C7068093C806B7
:104BE0009093C9064092A6065092A7066092A80626
:104BF0007092A9060E94AA117F926F925F924F92C3
:104C0000A32CB22C6496CCACDDACEEACFFAC6497BC
:104C100060960CAD1DAD2EAD3FAD60972C964CADA2
:104C20005DAD6EAD7FAD2C97CE0101960E946E41B9
:104C3000E12C00E010E0980168964CAD5DAD6EADE2
:104C40007FAD6897D4C11E3809F0D6C18091EB06BC
:104C50009091EC064A9708F4D1C30E94CA1C11E057
:104C6000109382060E94DC1C6E966CAF7DAF8EAFF7
:104C70009FAF6E970E94DC1CA2966CAF7DAF8EAF8B
:104C80009FAFA2970E94DC1CA6966CAF7DAF8EAF43
:104C90009FAFA6970E94DC1C4B012D968FAF2D97DE
:104CA00061969FAF61970E94DC1C65966FAF659718
:104CB000672E69968FAF69976A969FAF6A970E9431
:104CC000DC1CAB966CAF7DAF8EAF9FAFAB970E94F5
:104CD000CA1C782E80918506882309F455C08091DE
:104CE000E806811117C0872D8F7E73FE2AC0806170
:104CF000782E65968FAE6597692C2D962FAD2D97E2
:104D000069962FAF699761963FAD61976A963FAFFD
:104D10006A973AC0872D877F74FE25C08860782EF9
:104D200065968FAC6597962C69964FAD69972D96D1
:104D30004FAF2D976A965FAD6A9761965FAF6197A7
:104D400023C0782E65968FAE6597692C2D968FAD12
:104D50002D9769968FAF699761969FAD61976A9617
:104D60009FAF6A9711C0782E65968FAC6597962C89
:104D70006996AFAD69972D96AFAF2D976A96BFAD87
:104D80006A976196BFAF61978AA69BA62D96EFADF5
:104D90002D97ECA76196FFAD6197FDA765960FADC6
:104DA00065970EA76FA669961FAD699718AB6A96AF
:104DB0002FAD6A9729ABAAEBB6E0E596BFAFAEAFD1
:104DC000E5971E01BAE22B0E311CE2EAF6E0E1960D
:104DD000FFAFEEAFE19773E0472E512CA72DB0E067
:104DE000AD96BFAFAEAFAD97AD968EAD9FADAD9763
:104DF000042C02C0959587950A94E2F7D1010D9194
:104E00001D912D913C912C960CAF1DAF2EAF3FAF55
:104E10002C9780FF45C068017901FF0CCC08DC2C81
:104E2000760129962FAD29972A963FAD2A972B9682
:104E30004FAD2B972C965FAD2C976C2D7C2D8C2D28
:104E40009C2DE596EEADFFADE597A080B180C280C8
:104E5000D380E480F580068117810E9478E5208365
:104E60003183428353836483758386839783E1967A
:104E7000AEADBFADE1974D915D916D917C91139772
:104E80002C960CAD1DAD2EAD3FAD2C97400F511F94
:104E9000621F731F4D935D936D937C93139755C061
:104EA000E196EEADFFADE197408151816281738162
:104EB000041B150B260B370BC901B80168017901DA
:104EC000FF0CCC08DC2C76019801AC016C2D7C2DFC
:104ED0008C2D9C2DE596AEADBFADE597AC901196AF
:104EE000BC9011971296CC9012971396DC90139762
:104EF0001496EC9014971596FC90159716960C91B5
:104F0000169717961C9117970E9478E52C93119687
:104F10003C93119712964C93129713965C931397A8
:104F200014966C93149715967C93159716968C93FC
:104F3000169717969C932C960CAD1DAD2EAD3FADDC
:104F40002C970083118322833383BFEF4B1A5B0AB4
:104F5000E596EEADFFADE5973896E596FFAFEEAF7F
:104F6000E597F4E02F0E311CE196AEADBFADE197B1
:104F70001496E196BFAFAEAFE197B5E04B16510482
:104F800009F032CF0E94AA116A96EFAD6A97EF93AB
:104F90006996FFAD6997FF936F9265960FAD659720
:104FA0000F932D96AFAC2D976196BFAC6197A696E7
:104FB000CCACDDACEEACFFACA697A2960CAD1DADB3
:104FC0002EAD3FADA2976E964CAD5DAD6EAD7FAD93
:104FD0006E97CE0101960E946E41E72CAB960CAD08
:104FE0001DAD2EAD3FADAB9740E050E0BA01CE0114
:104FF00001960E94D375FEC11B3909F0FFC1809153
:10500000EB069091EC06809708F4F8C10E94CA1C48
:1050100011E0109382060E94DC1CAB966CAF7DAF52
:105020008EAF9FAFAB970E94DC1CAF966CAF7DAF8D
:105030008EAF9FAFAF970E94DC1CE3966CAF7DAF45
:105040008EAF9FAFE3970E94DC1C2D966FAF2D971C
:1050500061967FAF619765968FAF659769969FAFB1
:1050600069970E94DC1C6A966FAF6A976B967FAF58
:105070006B976F968FAF6F97A3969FAFA3970E9482
:10508000DC1CE7966CAF7DAF8EAF9FAFE7970E94B9
:10509000CA1C182F0E94DC1CEB966CAF7DAF8EAF44
:1050A0009FAFEB970E94CE1CED969FAF8EAFED9712
:1050B00080918506811105C01F7729961FAF29971A
:1050C0007DC08091E806811124C0212F2F7629967A
:1050D0002FAF299713FF41C0206129962FAF299741
:1050E0002D963FAD2D976A963FAF6A9761964FAD6B
:1050F00061976B964FAF6B9765965FAD65976F96AF
:105100005FAF6F9769968FAD6997A3968FAFA3979F
:1051100055C0912F977729969FAF299714FF36C0D6
:10512000986029969FAF29976A96AFAD6A972D969A
:10513000AFAF2D976B96BFAD6B976196BFAF619781
:105140006F96EFAD6F976596EFAF6597A396FFAD3E
:10515000A3976996FFAF699731C02D960FAD2D9734
:105160006A960FAF6A9761961FAD61976B961FAFF6
:105170006B9765962FAD65976F962FAF6F97699672
:105180003FAD6997A3963FAFA39718C06A964FADFE
:105190006A972D964FAF2D976B965FAD6B97619683
:1051A0005FAF61976F968FAD6F9765968FAF65977D
:1051B000A3969FADA39769969FAF69972D96AFADC4
:1051C0002D97AAA76196BFAD6197BBA76596EFAD76
:1051D0006597ECA76996FFAD6997FDA76A960FAD35
:1051E0006A970EA76B961FAD6B971FA76F962FAD93
:1051F0006F9728ABA3963FADA39739ABEAEBF6E0E8
:105200001E014AE2240E311CA2EAB6E0C158DF4F6B
:10521000B983A883CF57D04043E0442E512C299620
:10522000BFAD2997AB2FB0E0EF96BFAFAEAFEF9712
:10523000EF968EAD9FADEF97042C02C095958795A4
:105240000A94E2F7D1016D907D908D909C9080FF43
:1052500033C074016301FF0CCC08DC2C7601930190
:10526000A4016C2D7C2D8C2D9C2DA080B180C28042
:10527000D380E480F580068117810E9478E5208341
:105280003183428353836483758386839783C158B4
:10529000DF4FA881B981CF57D0404D915D916D917D
:1052A0007C911397460D571D681D791D4D935D9395
:1052B0006D937C93139736C0C158DF4FA881B98195
:1052C000CF57D0404D915D916D917C911397940192
:1052D0008301041B150B260B370BC901B8016801AC
:1052E0007901FF0CCC08DC2C76019B01AC016C2D04
:1052F0007C2D8C2D9C2DA080B180C280D380E48039
:10530000F580068117810E9478E5208331834283EE
:10531000538364837583868397836D927D928D9288
:105320009C921397BFEF4B1A5B0A389604E0200E4D
:10533000311CC158DF4FA881B981CF57D040149696
:10534000C158DF4FB983A883CF57D040B5E04B1683
:10535000510409F06DCF0E94AA117090531629963E
:10536000EFAD29977E2AA396FFADA397FF936F9683
:105370000FAD6F970F936B961FAD6B971F936A9648
:105380002FAD6A972F932D968FAC2D9761969FAC7A
:1053900061976596AFAC65976996BFAC6997E396E0
:1053A000CCACDDACEEACFFACE397AF960CAD1DAD75
:1053B0002EAD3FADAF97AB964CAD5DAD6EAD7FAD55
:1053C000AB97CE0101960E946E41ED96CEACDFAC5C
:1053D000ED97EB96ECACFDAC0EAD1FADEB97272D2A
:1053E000E7964CAD5DAD6EAD7FADE797CE01019612
:1053F0000E944D770F900F900F900F902091EB0629
:105400003091EC068091E9069091EA062817390759
:1054100081F00E949842882361F00E94E74288232D
:1054200041F00E94EA42682F89EE96E00E94831CB8
:10543000E5CF60E070E089EE96E00E94751CFC010B
:105440001081A8950C941F2081E08093010227CA47
:105450008091EB069091EC06029708F479C00E94C7
:10546000CA1C0E94CA1C8093E8060E947A7A70C007
:105470009091E806911108C0982F9F7E83FF0CC081
:10548000892F80610C948720982F977F84FF04C018
:10549000892F88600C948720892F0C948720809115
:1054A000EB069091EC06459708F452C00E94CA1C86
:1054B0000E94DC1C2B013C010E94DC1C2C966CAF72
:1054C0007DAF8EAF9FAF2C970E94DC1C6B017C01DF
:1054D0000E94DC1C4B015C010E94DC1C20918506B3
:1054E000222349F02091E806211103C0B401C5012F
:1054F00002C04B015C018092A2069092A306A0928A
:10550000A406B092A5066093A6067093A7068093A2
:10551000A8069093A9069F938F937F936F932C96E1
:105520000CAD1DAD2EAD3FAD2C97B301A201CE0148
:1055300001960E946E41CE0101960E94331260E0F6
:10554000CE0101960E94F3730F900F900F900F9071
:10555000C058DF4F0FB6F894DEBF0FBECDBFDF914E
:10556000CF911F910F91FF90EF90DF90CF90BF9060
:10557000AF909F908F907F906F905F904F903F90F3
:105580002F90089540E06CE074E088EF98E00E946E
:10559000C0D9E9EEF6E080E092E091838083138247
:1055A00012821582148283EF96E097838683108699
:1055B00011868FEC96E00E946D418CE796E00E9488
:1055C0002ADD86E796E00E942ADD80E796E00E94C9
:1055D0002ADD8AE696E00C942ADDCF93DF931F92B2
:1055E0001F92CDB7DEB721E0298322E32A8342E070
:1055F00050E0BC01CE0101960E9438E60F900F905A
:10560000DF91CF910895CF93DF93EC0140E050E01C
:1056100060EE70E40E945C9F46E656E666EA7EE332
:10562000CE0102960E945C9F40E050E060E172E48F
:10563000CE010496DF91CF910C945C9FCF93DF93C2
:10564000EC010A960E94032BCE0140960E94032B88
:10565000CE014A96DF91CF910C94ED2A0F931F93C0
:10566000CF93DF9300D0CDB7DEB78C0167E00E9407
:1056700042E661E0C80102960E9442E68FEF89830C
:105680008A838B83B8016C5F7F4F43E050E0CE018B
:1056900001960E9438E60F900F900F90DF91CF9106
:1056A0001F910F91089567E080E491E00C94D89EDB
:1056B000682F80E491E00C9442E6FF920F931F93D1
:1056C000CF93DF9300D0CDB7DEB7F82E062F142F7F
:1056D00068E080E491E00E9442E6F9820A831B833D
:1056E00043E050E064E471E0CE0101960E9438E6A8
:1056F0000F900F900F90DF91CF911F910F91FF901E
:105700000895CF92DF92EF92FF92CF93DF936B01D8
:105710007C01EA01CA010E9458E6B701CE01049655
:10572000DF91CF91FF90EF90DF90CF900C9458E6EF
:10573000AC018091C6029091C702A091C802B091BD
:10574000C902BC01CD010E94812B0895CF93DF9344
:10575000EC0166EE70E00E9458E666EE70E0CE0165
:1057600002960E9458E664E670E0CE0104960E941C
:1057700058E665E0CE010696DF91CF910C9442E6A3
:1057800061E08EE691E00E9442E668EE73E082E717
:1057900091E00E9458E668EE73E084E791E00E9491
:1057A00058E666E970E086E791E00E9458E660ED11
:1057B00077E088E791E00E9458E660ED77E08AE7BD
:1057C00091E00E9458E66FE070E08CE791E00E9463
:1057D00058E66FE070E08EE791E00E9458E66AE0DC
:1057E00070E080E891E00E9458E664E170E082E8B1
:1057F00091E00E9458E664E170E084E891E00E9444
:1058000058E644EF51E060E070E088ED91E00E94DE
:1058100050E64CE755E160E070E08CED91E00E94CD
:1058200050E660E170E080EE91E00E9458E660E1B1
:1058300070E082EE91E00E9458E660E08BE092E03A
:105840000E9442E661E084EE91E00E9442E660E858
:1058500088E891E00C9442E6CF93DF93CDB7DEB7B2
:1058600064970FB6F894DEBF0FBECDBF84E1EAECBB
:10587000F2E0DE01119601900D928A95E1F744E184
:1058800050E06EE070E0CE0101960E9438E664962A
:105890000FB6F894DEBF0FBECDBFDF91CF91089554
:1058A000CF92DF92EF92FF920F931F93CF93DF93EC
:1058B000CDB7DEB764970FB6F894DEBF0FBECDBF8D
:1058C0007C0188E0EEEDF2E0DE011D9601900D9284
:1058D0008A95E1F74CE050E06EE070E0CE01019671
:1058E0000E9414E66E018DE0C80ED11C8701F12CD8
:1058F00048E050E0B801F601819191916F010E945A
:1059000038E64CE050E0B801685F7F4FCE01019669
:105910000E9438E666EE70E0C80144960E9458E6A0
:1059200066EE70E0C80146960E9458E6F1E0FF1668
:1059300019F064E670E002C06DE270E0C8014896BC
:105940000E9458E6F394065E1F4F84E0F812D0CF11
:105950006CEA8CEF9FE00E9442E664960FB6F894E2
:10596000DEBF0FBECDBFDF91CF911F910F91FF9092
:10597000EF90DF90CF900895813009F082E0682F9A
:1059800082E490E00E9442E60C942C2C0F931F932B
:10599000CF93DF93CDB7DEB76D970FB6F894DEBF28
:1059A0000FBECDBF85E0E6EEF2E0DE015596019038
:1059B0000D928A95E1F740E150E062E270E08AE4FE
:1059C00093E00E9438E645E050E066E070E0CE01EA
:1059D00045960E9438E66FE984E090E00E9442E636
:1059E0006BE18CE090E00E9442E60E942C2C84E95E
:1059F0009FE00E94502CA89544E150E06CE871E0D3
:105A000082E893E00E9438E644E150E064EA71E005
:105A10008AE593E00E9438E644E150E064EF71E0EB
:105A20008EE693E00E9438E60E94C02B8091EB0244
:105A30009091EC02A091ED02B091EE028A8F9B8FC3
:105A4000AC8FBD8F44E050E064E470E0CE014A9634
:105A50000E9438E680E091E00E941E2B8CE191E0EC
:105A60000E941E2B00E010E020E030E040E050E01B
:105A700060E070E088EC91E00E94E89F20E030E078
:105A800040E050E060E070E080ED91E00E94E89F2F
:105A900080E491E00E942E2B8AE491E00E94982BF2
:105AA00088E591E00E94A62B61E080E691E00E94EB
:105AB00042E660E08DEF9FE00E9442E660E08EEFFC
:105AC0009FE00E9442E660E08FEF9FE00E9442E686
:105AD00061E082E99FE00E9442E660E081E99FE0A8
